{
  "contractName": "Buyer",
  "abi": [
    {
      "constant": true,
      "inputs": [
        {
          "name": "",
          "type": "uint256"
        }
      ],
      "name": "PaymentMethodMapping",
      "outputs": [
        {
          "name": "name",
          "type": "string"
        },
        {
          "name": "number",
          "type": "string"
        },
        {
          "name": "expiryDate",
          "type": "string"
        },
        {
          "name": "vendor",
          "type": "string"
        }
      ],
      "payable": false,
      "stateMutability": "view",
      "type": "function"
    },
    {
      "constant": true,
      "inputs": [
        {
          "name": "",
          "type": "uint256"
        }
      ],
      "name": "AddressMapping",
      "outputs": [
        {
          "name": "addressString",
          "type": "string"
        }
      ],
      "payable": false,
      "stateMutability": "view",
      "type": "function"
    },
    {
      "constant": true,
      "inputs": [],
      "name": "buyerName",
      "outputs": [
        {
          "name": "",
          "type": "string"
        }
      ],
      "payable": false,
      "stateMutability": "view",
      "type": "function"
    },
    {
      "constant": true,
      "inputs": [
        {
          "name": "",
          "type": "uint256"
        }
      ],
      "name": "addressIds",
      "outputs": [
        {
          "name": "",
          "type": "uint256"
        }
      ],
      "payable": false,
      "stateMutability": "view",
      "type": "function"
    },
    {
      "constant": true,
      "inputs": [
        {
          "name": "",
          "type": "uint256"
        }
      ],
      "name": "paymentMethods",
      "outputs": [
        {
          "name": "name",
          "type": "string"
        },
        {
          "name": "number",
          "type": "string"
        },
        {
          "name": "expiryDate",
          "type": "string"
        },
        {
          "name": "vendor",
          "type": "string"
        }
      ],
      "payable": false,
      "stateMutability": "view",
      "type": "function"
    },
    {
      "constant": true,
      "inputs": [],
      "name": "owner",
      "outputs": [
        {
          "name": "",
          "type": "address"
        }
      ],
      "payable": false,
      "stateMutability": "view",
      "type": "function"
    },
    {
      "constant": true,
      "inputs": [
        {
          "name": "",
          "type": "uint256"
        }
      ],
      "name": "addresses",
      "outputs": [
        {
          "name": "addressString",
          "type": "string"
        }
      ],
      "payable": false,
      "stateMutability": "view",
      "type": "function"
    },
    {
      "constant": true,
      "inputs": [
        {
          "name": "",
          "type": "uint256"
        }
      ],
      "name": "paymentMethodIds",
      "outputs": [
        {
          "name": "",
          "type": "uint256"
        }
      ],
      "payable": false,
      "stateMutability": "view",
      "type": "function"
    },
    {
      "inputs": [
        {
          "name": "_buyerName",
          "type": "string"
        }
      ],
      "payable": false,
      "stateMutability": "nonpayable",
      "type": "constructor"
    },
    {
      "anonymous": false,
      "inputs": [
        {
          "indexed": true,
          "name": "_addressId",
          "type": "uint256"
        }
      ],
      "name": "RegisteredAddress",
      "type": "event"
    },
    {
      "anonymous": false,
      "inputs": [
        {
          "indexed": true,
          "name": "_paymentMethodId",
          "type": "uint256"
        }
      ],
      "name": "RegisteredPaymentMethod",
      "type": "event"
    },
    {
      "constant": false,
      "inputs": [
        {
          "name": "_addressString",
          "type": "string"
        }
      ],
      "name": "registerAddress",
      "outputs": [],
      "payable": false,
      "stateMutability": "nonpayable",
      "type": "function"
    },
    {
      "constant": true,
      "inputs": [],
      "name": "getAddressesIds",
      "outputs": [
        {
          "name": "",
          "type": "uint256[]"
        }
      ],
      "payable": false,
      "stateMutability": "view",
      "type": "function"
    },
    {
      "constant": true,
      "inputs": [
        {
          "name": "_addressId",
          "type": "uint256"
        }
      ],
      "name": "getAddressDataById",
      "outputs": [
        {
          "name": "addressString",
          "type": "string"
        }
      ],
      "payable": false,
      "stateMutability": "view",
      "type": "function"
    },
    {
      "constant": false,
      "inputs": [
        {
          "name": "_name",
          "type": "string"
        },
        {
          "name": "_number",
          "type": "string"
        },
        {
          "name": "_expiryDate",
          "type": "string"
        },
        {
          "name": "_vendor",
          "type": "string"
        }
      ],
      "name": "registerPaymentMethod",
      "outputs": [],
      "payable": false,
      "stateMutability": "nonpayable",
      "type": "function"
    },
    {
      "constant": true,
      "inputs": [],
      "name": "getPaymentMethodIds",
      "outputs": [
        {
          "name": "",
          "type": "uint256[]"
        }
      ],
      "payable": false,
      "stateMutability": "view",
      "type": "function"
    },
    {
      "constant": true,
      "inputs": [
        {
          "name": "_paymentMethodId",
          "type": "uint256"
        }
      ],
      "name": "getPaymentMethodDataById",
      "outputs": [
        {
          "name": "name",
          "type": "string"
        },
        {
          "name": "number",
          "type": "string"
        },
        {
          "name": "expiryDate",
          "type": "string"
        },
        {
          "name": "vendor",
          "type": "string"
        }
      ],
      "payable": false,
      "stateMutability": "view",
      "type": "function"
    }
  ],
  "bytecode": "0x60806040523480156200001157600080fd5b5060405162002343380380620023438339810180604052810190808051820192919050505033600260006101000a81548173ffffffffffffffffffffffffffffffffffffffff021916908373ffffffffffffffffffffffffffffffffffffffff16021790555080600190805190602001906200008f929190620001de565b506000809054906101000a900473ffffffffffffffffffffffffffffffffffffffff1673ffffffffffffffffffffffffffffffffffffffff1663194700786000836040518363ffffffff167c0100000000000000000000000000000000000000000000000000000000028152600401808373ffffffffffffffffffffffffffffffffffffffff1673ffffffffffffffffffffffffffffffffffffffff16815260200180602001828103825283818151815260200191508051906020019080838360005b838110156200016f57808201518184015260208101905062000152565b50505050905090810190601f1680156200019d5780820380516001836020036101000a031916815260200191505b509350505050600060405180830381600087803b158015620001be57600080fd5b505af1158015620001d3573d6000803e3d6000fd5b50505050506200028d565b828054600181600116156101000203166002900490600052602060002090601f016020900481019282601f106200022157805160ff191683800117855562000252565b8280016001018555821562000252579182015b828111156200025157825182559160200191906001019062000234565b5b50905062000261919062000265565b5090565b6200028a91905b80821115620002865760008160009055506001016200026c565b5090565b90565b6120a6806200029d6000396000f3006080604052600436106100cf576000357c0100000000000000000000000000000000000000000000000000000000900463ffffffff168062b3046b146100d457806312a82fc81461015757806317615e9d146101c357806332b19ff5146103ad57806339623abc146104535780634ed175ab146104f957806375c1fef8146105895780638b90cdc9146105ca5780638da5cb5b146107b45780639c538aa91461080b578063ae30c74714610877578063bb1bd28f14610a61578063edf26d9b14610a9c578063fadddc9114610b42575b600080fd5b3480156100e057600080fd5b50610155600480360381019080803590602001908201803590602001919091929391929390803590602001908201803590602001919091929391929390803590602001908201803590602001919091929391929390803590602001908201803590602001919091929391929390505050610b83565b005b34801561016357600080fd5b5061016c610fba565b6040518080602001828103825283818151815260200191508051906020019060200280838360005b838110156101af578082015181840152602081019050610194565b505050509050019250505060405180910390f35b3480156101cf57600080fd5b506101ee600480360381019080803590602001909291905050506110d9565b6040518080602001806020018060200180602001858103855289818151815260200191508051906020019080838360005b8381101561023a57808201518184015260208101905061021f565b50505050905090810190601f1680156102675780820380516001836020036101000a031916815260200191505b50858103845288818151815260200191508051906020019080838360005b838110156102a0578082015181840152602081019050610285565b50505050905090810190601f1680156102cd5780820380516001836020036101000a031916815260200191505b50858103835287818151815260200191508051906020019080838360005b838110156103065780820151818401526020810190506102eb565b50505050905090810190601f1680156103335780820380516001836020036101000a031916815260200191505b50858103825286818151815260200191508051906020019080838360005b8381101561036c578082015181840152602081019050610351565b50505050905090810190601f1680156103995780820380516001836020036101000a031916815260200191505b509850505050505050505060405180910390f35b3480156103b957600080fd5b506103d860048036038101908080359060200190929190505050611369565b6040518080602001828103825283818151815260200191508051906020019080838360005b838110156104185780820151818401526020810190506103fd565b50505050905090810190601f1680156104455780820380516001836020036101000a031916815260200191505b509250505060405180910390f35b34801561045f57600080fd5b5061047e6004803603810190808035906020019092919050505061141f565b6040518080602001828103825283818151815260200191508051906020019080838360005b838110156104be5780820151818401526020810190506104a3565b50505050905090810190601f1680156104eb5780820380516001836020036101000a031916815260200191505b509250505060405180910390f35b34801561050557600080fd5b5061050e6114f9565b6040518080602001828103825283818151815260200191508051906020019080838360005b8381101561054e578082015181840152602081019050610533565b50505050905090810190601f16801561057b5780820380516001836020036101000a031916815260200191505b509250505060405180910390f35b34801561059557600080fd5b506105b460048036038101908080359060200190929190505050611597565b6040518082815260200191505060405180910390f35b3480156105d657600080fd5b506105f5600480360381019080803590602001909291905050506115ba565b6040518080602001806020018060200180602001858103855289818151815260200191508051906020019080838360005b83811015610641578082015181840152602081019050610626565b50505050905090810190601f16801561066e5780820380516001836020036101000a031916815260200191505b50858103845288818151815260200191508051906020019080838360005b838110156106a757808201518184015260208101905061068c565b50505050905090810190601f1680156106d45780820380516001836020036101000a031916815260200191505b50858103835287818151815260200191508051906020019080838360005b8381101561070d5780820151818401526020810190506106f2565b50505050905090810190601f16801561073a5780820380516001836020036101000a031916815260200191505b50858103825286818151815260200191508051906020019080838360005b83811015610773578082015181840152602081019050610758565b50505050905090810190601f1680156107a05780820380516001836020036101000a031916815260200191505b509850505050505050505060405180910390f35b3480156107c057600080fd5b506107c9611859565b604051808273ffffffffffffffffffffffffffffffffffffffff1673ffffffffffffffffffffffffffffffffffffffff16815260200191505060405180910390f35b34801561081757600080fd5b5061082061187f565b6040518080602001828103825283818151815260200191508051906020019060200280838360005b83811015610863578082015181840152602081019050610848565b505050509050019250505060405180910390f35b34801561088357600080fd5b506108a26004803603810190808035906020019092919050505061199e565b6040518080602001806020018060200180602001858103855289818151815260200191508051906020019080838360005b838110156108ee5780820151818401526020810190506108d3565b50505050905090810190601f16801561091b5780820380516001836020036101000a031916815260200191505b50858103845288818151815260200191508051906020019080838360005b83811015610954578082015181840152602081019050610939565b50505050905090810190601f1680156109815780820380516001836020036101000a031916815260200191505b50858103835287818151815260200191508051906020019080838360005b838110156109ba57808201518184015260208101905061099f565b50505050905090810190601f1680156109e75780820380516001836020036101000a031916815260200191505b50858103825286818151815260200191508051906020019080838360005b83811015610a20578082015181840152602081019050610a05565b50505050905090810190601f168015610a4d5780820380516001836020036101000a031916815260200191505b509850505050505050505060405180910390f35b348015610a6d57600080fd5b50610a9a600480360381019080803590602001908201803590602001919091929391929390505050611c85565b005b348015610aa857600080fd5b50610ac760048036038101908080359060200190929190505050611eb4565b6040518080602001828103825283818151815260200191508051906020019080838360005b83811015610b07578082015181840152602081019050610aec565b50505050905090810190601f168015610b345780820380516001836020036101000a031916815260200191505b509250505060405180910390f35b348015610b4e57600080fd5b50610b6d60048036038101908080359060200190929190505050611f75565b6040518082815260200191505060405180910390f35b600033600260009054906101000a900473ffffffffffffffffffffffffffffffffffffffff1673ffffffffffffffffffffffffffffffffffffffff168173ffffffffffffffffffffffffffffffffffffffff16141515610c4b576040517f08c379a000000000000000000000000000000000000000000000000000000000815260040180806020018281038252600d8152602001807f6e6f7420746865206f776e65720000000000000000000000000000000000000081525060200191505060405180910390fd5b600680549050915060066080604051908101604052808c8c8080601f01602080910402602001604051908101604052809392919081815260200183838082843782019150505050505081526020018a8a8080601f016020809104026020016040519081016040528093929190818152602001838380828437820191505050505050815260200188888080601f016020809104026020016040519081016040528093929190818152602001838380828437820191505050505050815260200186868080601f016020809104026020016040519081016040528093929190818152602001838380828437820191505050505050815250908060018154018082558091505090600182039060005260206000209060040201600090919290919091506000820151816000019080519060200190610d86929190611f98565b506020820151816001019080519060200190610da3929190611f98565b506040820151816002019080519060200190610dc0929190611f98565b506060820151816003019080519060200190610ddd929190611f98565b505050506080604051908101604052808b8b8080601f016020809104026020016040519081016040528093929190818152602001838380828437820191505050505050815260200189898080601f016020809104026020016040519081016040528093929190818152602001838380828437820191505050505050815260200187878080601f016020809104026020016040519081016040528093929190818152602001838380828437820191505050505050815260200185858080601f016020809104026020016040519081016040528093929190818152602001838380828437820191505050505050815250600860008481526020019081526020016000206000820151816000019080519060200190610efa929190611f98565b506020820151816001019080519060200190610f17929190611f98565b506040820151816002019080519060200190610f34929190611f98565b506060820151816003019080519060200190610f51929190611f98565b509050506007829080600181540180825580915050906001820390600052602060002001600090919290919091505550817f595901edb66432cb1e4a8b89215caa2a43dc94fcbd867d7dd0b63277206fc42c60405160405180910390a250505050505050505050565b606033600260009054906101000a900473ffffffffffffffffffffffffffffffffffffffff1673ffffffffffffffffffffffffffffffffffffffff168173ffffffffffffffffffffffffffffffffffffffff16141515611082576040517f08c379a000000000000000000000000000000000000000000000000000000000815260040180806020018281038252600d8152602001807f6e6f7420746865206f776e65720000000000000000000000000000000000000081525060200191505060405180910390fd5b60078054806020026020016040519081016040528092919081815260200182805480156110ce57602002820191906000526020600020905b8154815260200190600101908083116110ba575b505050505091505090565b6008602052806000526040600020600091509050806000018054600181600116156101000203166002900480601f0160208091040260200160405190810160405280929190818152602001828054600181600116156101000203166002900480156111855780601f1061115a57610100808354040283529160200191611185565b820191906000526020600020905b81548152906001019060200180831161116857829003601f168201915b505050505090806001018054600181600116156101000203166002900480601f0160208091040260200160405190810160405280929190818152602001828054600181600116156101000203166002900480156112235780601f106111f857610100808354040283529160200191611223565b820191906000526020600020905b81548152906001019060200180831161120657829003601f168201915b505050505090806002018054600181600116156101000203166002900480601f0160208091040260200160405190810160405280929190818152602001828054600181600116156101000203166002900480156112c15780601f10611296576101008083540402835291602001916112c1565b820191906000526020600020905b8154815290600101906020018083116112a457829003601f168201915b505050505090806003018054600181600116156101000203166002900480601f01602080910402602001604051908101604052809291908181526020018280546001816001161561010002031660029004801561135f5780601f106113345761010080835404028352916020019161135f565b820191906000526020600020905b81548152906001019060200180831161134257829003601f168201915b5050505050905084565b6005602052806000526040600020600091509050806000018054600181600116156101000203166002900480601f0160208091040260200160405190810160405280929190818152602001828054600181600116156101000203166002900480156114155780601f106113ea57610100808354040283529160200191611415565b820191906000526020600020905b8154815290600101906020018083116113f857829003601f168201915b5050505050905081565b6060611429612018565b6005600084815260200190815260200160002060206040519081016040529081600082018054600181600116156101000203166002900480601f0160208091040260200160405190810160405280929190818152602001828054600181600116156101000203166002900480156114e15780601f106114b6576101008083540402835291602001916114e1565b820191906000526020600020905b8154815290600101906020018083116114c457829003601f168201915b50505050508152505090508060000151915050919050565b60018054600181600116156101000203166002900480601f01602080910402602001604051908101604052809291908181526020018280546001816001161561010002031660029004801561158f5780601f106115645761010080835404028352916020019161158f565b820191906000526020600020905b81548152906001019060200180831161157257829003601f168201915b505050505081565b6004818154811015156115a657fe5b906000526020600020016000915090505481565b6006818154811015156115c957fe5b9060005260206000209060040201600091509050806000018054600181600116156101000203166002900480601f0160208091040260200160405190810160405280929190818152602001828054600181600116156101000203166002900480156116755780601f1061164a57610100808354040283529160200191611675565b820191906000526020600020905b81548152906001019060200180831161165857829003601f168201915b505050505090806001018054600181600116156101000203166002900480601f0160208091040260200160405190810160405280929190818152602001828054600181600116156101000203166002900480156117135780601f106116e857610100808354040283529160200191611713565b820191906000526020600020905b8154815290600101906020018083116116f657829003601f168201915b505050505090806002018054600181600116156101000203166002900480601f0160208091040260200160405190810160405280929190818152602001828054600181600116156101000203166002900480156117b15780601f10611786576101008083540402835291602001916117b1565b820191906000526020600020905b81548152906001019060200180831161179457829003601f168201915b505050505090806003018054600181600116156101000203166002900480601f01602080910402602001604051908101604052809291908181526020018280546001816001161561010002031660029004801561184f5780601f106118245761010080835404028352916020019161184f565b820191906000526020600020905b81548152906001019060200180831161183257829003601f168201915b5050505050905084565b600260009054906101000a900473ffffffffffffffffffffffffffffffffffffffff1681565b606033600260009054906101000a900473ffffffffffffffffffffffffffffffffffffffff1673ffffffffffffffffffffffffffffffffffffffff168173ffffffffffffffffffffffffffffffffffffffff16141515611947576040517f08c379a000000000000000000000000000000000000000000000000000000000815260040180806020018281038252600d8152602001807f6e6f7420746865206f776e65720000000000000000000000000000000000000081525060200191505060405180910390fd5b600480548060200260200160405190810160405280929190818152602001828054801561199357602002820191906000526020600020905b81548152602001906001019080831161197f575b505050505091505090565b6060806060806119ac61202c565b6008600087815260200190815260200160002060806040519081016040529081600082018054600181600116156101000203166002900480601f016020809104026020016040519081016040528092919081815260200182805460018160011615610100020316600290048015611a645780601f10611a3957610100808354040283529160200191611a64565b820191906000526020600020905b815481529060010190602001808311611a4757829003601f168201915b50505050508152602001600182018054600181600116156101000203166002900480601f016020809104026020016040519081016040528092919081815260200182805460018160011615610100020316600290048015611b065780601f10611adb57610100808354040283529160200191611b06565b820191906000526020600020905b815481529060010190602001808311611ae957829003601f168201915b50505050508152602001600282018054600181600116156101000203166002900480601f016020809104026020016040519081016040528092919081815260200182805460018160011615610100020316600290048015611ba85780601f10611b7d57610100808354040283529160200191611ba8565b820191906000526020600020905b815481529060010190602001808311611b8b57829003601f168201915b50505050508152602001600382018054600181600116156101000203166002900480601f016020809104026020016040519081016040528092919081815260200182805460018160011615610100020316600290048015611c4a5780601f10611c1f57610100808354040283529160200191611c4a565b820191906000526020600020905b815481529060010190602001808311611c2d57829003601f168201915b505050505081525050905080600001518160200151826040015183606001518393508292508191508090509450945094509450509193509193565b600033600260009054906101000a900473ffffffffffffffffffffffffffffffffffffffff1673ffffffffffffffffffffffffffffffffffffffff168173ffffffffffffffffffffffffffffffffffffffff16141515611d4d576040517f08c379a000000000000000000000000000000000000000000000000000000000815260040180806020018281038252600d8152602001807f6e6f7420746865206f776e65720000000000000000000000000000000000000081525060200191505060405180910390fd5b6003805490509150600360206040519081016040528086868080601f0160208091040260200160405190810160405280939291908181526020018383808284378201915050505050508152509080600181540180825580915050906001820390600052602060002001600090919290919091506000820151816000019080519060200190611ddc929190611f98565b5050505060206040519081016040528085858080601f016020809104026020016040519081016040528093929190818152602001838380828437820191505050505050815250600560008481526020019081526020016000206000820151816000019080519060200190611e51929190611f98565b509050506004829080600181540180825580915050906001820390600052602060002001600090919290919091505550817f4366a86994aa2a1a77033d96d4d559111cd78b47c967e83f62eb1c21d7fc7bef60405160405180910390a250505050565b600381815481101515611ec357fe5b90600052602060002001600091509050806000018054600181600116156101000203166002900480601f016020809104026020016040519081016040528092919081815260200182805460018160011615610100020316600290048015611f6b5780601f10611f4057610100808354040283529160200191611f6b565b820191906000526020600020905b815481529060010190602001808311611f4e57829003601f168201915b5050505050905081565b600781815481101515611f8457fe5b906000526020600020016000915090505481565b828054600181600116156101000203166002900490600052602060002090601f016020900481019282601f10611fd957805160ff1916838001178555612007565b82800160010185558215612007579182015b82811115612006578251825591602001919060010190611feb565b5b5090506120149190612055565b5090565b602060405190810160405280606081525090565b608060405190810160405280606081526020016060815260200160608152602001606081525090565b61207791905b8082111561207357600081600090555060010161205b565b5090565b905600a165627a7a723058201b4bf3232f28ca5b6afb29e848461dab2187596966633b175cfdff9c7bdb498b0029",
  "source": "pragma solidity ^0.4.24;\n\nimport './BuyerRegistry.sol';\n\ncontract Buyer {\n\n  event RegisteredAddress(uint256 indexed _addressId);\n  event RegisteredPaymentMethod(uint256 indexed _paymentMethodId);\n\n  BuyerRegistry buyerRegistry;\n  string public buyerName;\n  address public owner;\n\n  struct AddressData {\n    string addressString;\n  }\n\n  struct PaymentMethodData {\n    string name;\n    string number;\n    string expiryDate;\n    string vendor;\n  }\n\n  AddressData[] public addresses;\n  uint256[] public addressIds;\n  mapping (uint256 => AddressData) public AddressMapping;\n\n  PaymentMethodData[] public paymentMethods;\n  uint256[] public paymentMethodIds;\n  mapping (uint256 => PaymentMethodData) public PaymentMethodMapping;\n\n  /**\n   * @dev The Ownable constructor sets the original `owner` of the contract to the sender\n   * account.\n   */\n  constructor(string _buyerName) public {\n    owner = msg.sender;\n    buyerName = _buyerName;\n    buyerRegistry.registerBuyer(address(0), _buyerName);\n  }\n\n  /**\n   * @dev Throws if called by any account other than the owner.\n   */\n  modifier onlyOwner(address _sender) {\n    require(_sender == owner, \"not the owner\");\n    _;\n  }\n\n  function registerAddress(string _addressString) external onlyOwner(msg.sender) {\n    uint256 id = addresses.length;\n    addresses.push(AddressData(_addressString));\n    AddressMapping[id] = AddressData(_addressString);\n    addressIds.push(id);\n    emit RegisteredAddress(id);\n  }\n\n  // function removeAddress(uint index) public onlyOwner(msg.sender) {\n  //   if (index >= addresses.length) return;\n\n  //   for (uint i = index; i<addresses.length-1; i++){\n  //       addresses[i] = addresses[i+1];\n  //   }\n  //   addresses.length--;\n  // }\n\n  function getAddressesIds() external view onlyOwner(msg.sender) returns(uint256[]){\n    return addressIds;\n  }\n\n  function getAddressDataById(uint256 _addressId) external view returns (string addressString) {\n    AddressData memory data = AddressMapping[_addressId];\n    return data.addressString;\n  }\n\n  function registerPaymentMethod(string _name, string _number, string _expiryDate, string _vendor) external onlyOwner(msg.sender) {\n    uint256 id = paymentMethods.length;\n    paymentMethods.push(PaymentMethodData(_name, _number, _expiryDate, _vendor));\n    PaymentMethodMapping[id] = PaymentMethodData(_name, _number, _expiryDate, _vendor);\n    paymentMethodIds.push(id);\n    emit RegisteredPaymentMethod(id);\n  }\n\n  function getPaymentMethodIds() external view onlyOwner(msg.sender) returns(uint256[]){\n    return paymentMethodIds;\n  }\n\n  function getPaymentMethodDataById(uint256 _paymentMethodId) external view returns (string name, string number, string expiryDate, string vendor) {\n    PaymentMethodData memory data = PaymentMethodMapping[_paymentMethodId];\n    return (data.name, data.number, data.expiryDate, data.vendor);\n  }\n}\n",
  "sourcePath": "/Users/vincent.chan/Documents/blockchain/blockchain-buyer/contracts/Buyer.sol",
  "compiler": {
    "name": "solc",
    "version": "0.4.24+commit.e67f0147.Emscripten.clang"
  },
  "schemaVersion": "2.0.1",
  "updatedAt": "2019-01-12T16:52:36.227Z"
}