{
  "contractName": "BuyerRegistry",
  "abi": [
    {
      "constant": true,
      "inputs": [
        {
          "name": "",
          "type": "uint256"
        }
      ],
      "name": "buyerIds",
      "outputs": [
        {
          "name": "",
          "type": "uint256"
        }
      ],
      "payable": false,
      "stateMutability": "view",
      "type": "function"
    },
    {
      "constant": true,
      "inputs": [
        {
          "name": "",
          "type": "uint256"
        }
      ],
      "name": "BuyerMapping",
      "outputs": [
        {
          "name": "buyerAddress",
          "type": "address"
        },
        {
          "name": "buyerName",
          "type": "string"
        }
      ],
      "payable": false,
      "stateMutability": "view",
      "type": "function"
    },
    {
      "constant": true,
      "inputs": [
        {
          "name": "",
          "type": "uint256"
        }
      ],
      "name": "buyerDataList",
      "outputs": [
        {
          "name": "buyerAddress",
          "type": "address"
        },
        {
          "name": "buyerName",
          "type": "string"
        }
      ],
      "payable": false,
      "stateMutability": "view",
      "type": "function"
    },
    {
      "constant": true,
      "inputs": [
        {
          "name": "",
          "type": "address"
        },
        {
          "name": "",
          "type": "uint256"
        }
      ],
      "name": "ownerToOwnedBuyerIds",
      "outputs": [
        {
          "name": "",
          "type": "uint256"
        }
      ],
      "payable": false,
      "stateMutability": "view",
      "type": "function"
    },
    {
      "anonymous": false,
      "inputs": [
        {
          "indexed": true,
          "name": "buyerName",
          "type": "string"
        }
      ],
      "name": "RegisterNewBuyer",
      "type": "event"
    },
    {
      "constant": false,
      "inputs": [
        {
          "name": "_address",
          "type": "address"
        },
        {
          "name": "_buyerName",
          "type": "string"
        }
      ],
      "name": "registerBuyer",
      "outputs": [],
      "payable": false,
      "stateMutability": "nonpayable",
      "type": "function"
    },
    {
      "constant": true,
      "inputs": [],
      "name": "getOwnersBuyerIds",
      "outputs": [
        {
          "name": "",
          "type": "uint256[]"
        }
      ],
      "payable": false,
      "stateMutability": "view",
      "type": "function"
    },
    {
      "constant": true,
      "inputs": [
        {
          "name": "_buyerId",
          "type": "uint256"
        }
      ],
      "name": "getBuyerDataById",
      "outputs": [
        {
          "name": "buyerAddress",
          "type": "address"
        },
        {
          "name": "buyerName",
          "type": "string"
        }
      ],
      "payable": false,
      "stateMutability": "view",
      "type": "function"
    }
  ],
  "bytecode": "0x608060405234801561001057600080fd5b50610b16806100206000396000f300608060405260043610610083576000357c0100000000000000000000000000000000000000000000000000000000900463ffffffff16806307fe01f7146100885780630a08e338146100c95780631947007814610135578063552f376a1461019057806359c36ede146102695780636f6aa40b14610342578063a246612a1461041b575b600080fd5b34801561009457600080fd5b506100b36004803603810190808035906020019092919050505061047c565b6040518082815260200191505060405180910390f35b3480156100d557600080fd5b506100de61049f565b6040518080602001828103825283818151815260200191508051906020019060200280838360005b83811015610121578082015181840152602081019050610106565b505050509050019250505060405180910390f35b34801561014157600080fd5b5061018e600480360381019080803573ffffffffffffffffffffffffffffffffffffffff169060200190929190803590602001908201803590602001919091929391929390505050610534565b005b34801561019c57600080fd5b506101bb600480360381019080803590602001909291905050506106e3565b604051808373ffffffffffffffffffffffffffffffffffffffff1673ffffffffffffffffffffffffffffffffffffffff16815260200180602001828103825283818151815260200191508051906020019080838360005b8381101561022d578082015181840152602081019050610212565b50505050905090810190601f16801561025a5780820380516001836020036101000a031916815260200191505b50935050505060405180910390f35b34801561027557600080fd5b50610294600480360381019080803590602001909291905050506107bf565b604051808373ffffffffffffffffffffffffffffffffffffffff1673ffffffffffffffffffffffffffffffffffffffff16815260200180602001828103825283818151815260200191508051906020019080838360005b838110156103065780820151818401526020810190506102eb565b50505050905090810190601f1680156103335780820380516001836020036101000a031916815260200191505b50935050505060405180910390f35b34801561034e57600080fd5b5061036d600480360381019080803590602001909291905050506108fa565b604051808373ffffffffffffffffffffffffffffffffffffffff1673ffffffffffffffffffffffffffffffffffffffff16815260200180602001828103825283818151815260200191508051906020019080838360005b838110156103df5780820151818401526020810190506103c4565b50505050905090810190601f16801561040c5780820380516001836020036101000a031916815260200191505b50935050505060405180910390f35b34801561042757600080fd5b50610466600480360381019080803573ffffffffffffffffffffffffffffffffffffffff169060200190929190803590602001909291905050506109e5565b6040518082815260200191505060405180910390f35b60018181548110151561048b57fe5b906000526020600020016000915090505481565b6060600260003373ffffffffffffffffffffffffffffffffffffffff1673ffffffffffffffffffffffffffffffffffffffff16815260200190815260200160002080548060200260200160405190810160405280929190818152602001828054801561052a57602002820191906000526020600020905b815481526020019060010190808311610516575b5050505050905090565b60006001600060408051908101604052808773ffffffffffffffffffffffffffffffffffffffff16815260200186868080601f0160208091040260200160405190810160405280939291908181526020018383808284378201915050505050508152509080600181540180825580915050906001820390600052602060002090600202016000909192909190915060008201518160000160006101000a81548173ffffffffffffffffffffffffffffffffffffffff021916908373ffffffffffffffffffffffffffffffffffffffff1602179055506020820151816001019080519060200190610625929190610a15565b505050039050600260003373ffffffffffffffffffffffffffffffffffffffff1673ffffffffffffffffffffffffffffffffffffffff16815260200190815260200160002081908060018154018082558091505090600182039060005260206000200160009091929091909150555082826040518083838082843782019150509250505060405180910390207f3e6df4300a3875abdad0b90abb563b110a0ac7cfb0f0ea25f58843b151cf226d60405160405180910390a250505050565b60036020528060005260406000206000915090508060000160009054906101000a900473ffffffffffffffffffffffffffffffffffffffff1690806001018054600181600116156101000203166002900480601f0160208091040260200160405190810160405280929190818152602001828054600181600116156101000203166002900480156107b55780601f1061078a576101008083540402835291602001916107b5565b820191906000526020600020905b81548152906001019060200180831161079857829003601f168201915b5050505050905082565b600060606107cb610a95565b600360008581526020019081526020016000206040805190810160405290816000820160009054906101000a900473ffffffffffffffffffffffffffffffffffffffff1673ffffffffffffffffffffffffffffffffffffffff1673ffffffffffffffffffffffffffffffffffffffff168152602001600182018054600181600116156101000203166002900480601f0160208091040260200160405190810160405280929190818152602001828054600181600116156101000203166002900480156108d85780601f106108ad576101008083540402835291602001916108d8565b820191906000526020600020905b8154815290600101906020018083116108bb57829003601f168201915b5050505050815250509050806000015181602001518090509250925050915091565b60008181548110151561090957fe5b90600052602060002090600202016000915090508060000160009054906101000a900473ffffffffffffffffffffffffffffffffffffffff1690806001018054600181600116156101000203166002900480601f0160208091040260200160405190810160405280929190818152602001828054600181600116156101000203166002900480156109db5780601f106109b0576101008083540402835291602001916109db565b820191906000526020600020905b8154815290600101906020018083116109be57829003601f168201915b5050505050905082565b600260205281600052604060002081815481101515610a0057fe5b90600052602060002001600091509150505481565b828054600181600116156101000203166002900490600052602060002090601f016020900481019282601f10610a5657805160ff1916838001178555610a84565b82800160010185558215610a84579182015b82811115610a83578251825591602001919060010190610a68565b5b509050610a919190610ac5565b5090565b6040805190810160405280600073ffffffffffffffffffffffffffffffffffffffff168152602001606081525090565b610ae791905b80821115610ae3576000816000905550600101610acb565b5090565b905600a165627a7a723058201314dc918eaa85e9e312adf24d1e171187ec2a85f68a4f40f7ec39245dd342800029",
  "source": "pragma solidity ^0.4.24;\n\ncontract BuyerRegistry {\n\n  event RegisterNewBuyer(string indexed buyerName);\n  \n  struct BuyerData {\n    address buyerAddress;\n    string buyerName;\n  }\n\n  BuyerData[] public buyerDataList;\n  uint256[] public buyerIds;\n\n  mapping (address => uint256[]) public ownerToOwnedBuyerIds;\n\n  // Maps Buyer Contract id's to the owner address\n  mapping (uint256 => BuyerData) public BuyerMapping;\n\n  function registerBuyer(address _address, string _buyerName) external {\n    uint256 id = buyerDataList.push(BuyerData(_address, _buyerName)) - 1;\n    ownerToOwnedBuyerIds[msg.sender].push(id);\n    emit RegisterNewBuyer(_buyerName);\n  }\n\n  function getOwnersBuyerIds() external view returns(uint256[] memory){\n    return ownerToOwnedBuyerIds[msg.sender];\n  }\n\n  function getBuyerDataById(uint256 _buyerId) external view returns (address buyerAddress, string buyerName) {\n    BuyerData memory data = BuyerMapping[_buyerId];\n    return (data.buyerAddress, data.buyerName);\n  }\n\n  // function accessOwnedBuyers() external view returns(uint256[] memory){\n  //  return ownedBuyers[msg.sender];\n  // }\n}\n",
  "sourcePath": "/Users/vincent.chan/Documents/blockchain/blockchain-buyer/contracts/BuyerRegistry.sol",
  "compiler": {
    "name": "solc",
    "version": "0.4.24+commit.e67f0147.Emscripten.clang"
  },
  "schemaVersion": "2.0.1",
  "updatedAt": "2019-01-12T16:52:36.223Z"
}